{
  "_format": "hh-sol-artifact-1",
  "contractName": "Dex",
  "sourceName": "contracts/dex.sol",
  "abi": [
    {
      "anonymous": false,
      "inputs": [
        {
          "indexed": false,
          "internalType": "address",
          "name": "tokenAddress",
          "type": "address"
        },
        {
          "indexed": false,
          "internalType": "uint256",
          "name": "amount",
          "type": "uint256"
        }
      ],
      "name": "LogDeposit",
      "type": "event"
    },
    {
      "anonymous": false,
      "inputs": [
        {
          "indexed": false,
          "internalType": "address",
          "name": "tokenAddress",
          "type": "address"
        },
        {
          "indexed": false,
          "internalType": "uint256",
          "name": "amount",
          "type": "uint256"
        }
      ],
      "name": "LogWithdrawal",
      "type": "event"
    },
    {
      "anonymous": false,
      "inputs": [
        {
          "indexed": false,
          "internalType": "uint256",
          "name": "filledAmount",
          "type": "uint256"
        },
        {
          "indexed": false,
          "internalType": "uint256",
          "name": "totalCost",
          "type": "uint256"
        }
      ],
      "name": "OrderFilled",
      "type": "event"
    },
    {
      "anonymous": false,
      "inputs": [
        {
          "indexed": true,
          "internalType": "address",
          "name": "previousOwner",
          "type": "address"
        },
        {
          "indexed": true,
          "internalType": "address",
          "name": "newOwner",
          "type": "address"
        }
      ],
      "name": "OwnershipTransferred",
      "type": "event"
    },
    {
      "anonymous": false,
      "inputs": [
        {
          "indexed": false,
          "internalType": "uint256",
          "name": "filledAmount",
          "type": "uint256"
        },
        {
          "indexed": false,
          "internalType": "uint256",
          "name": "cost",
          "type": "uint256"
        }
      ],
      "name": "PartialFill",
      "type": "event"
    },
    {
      "inputs": [
        {
          "internalType": "bytes32",
          "name": "ticker",
          "type": "bytes32"
        },
        {
          "internalType": "address",
          "name": "tokenAddress",
          "type": "address"
        }
      ],
      "name": "addToken",
      "outputs": [],
      "stateMutability": "nonpayable",
      "type": "function"
    },
    {
      "inputs": [
        {
          "internalType": "address",
          "name": "",
          "type": "address"
        },
        {
          "internalType": "bytes32",
          "name": "",
          "type": "bytes32"
        }
      ],
      "name": "balances",
      "outputs": [
        {
          "internalType": "uint256",
          "name": "",
          "type": "uint256"
        }
      ],
      "stateMutability": "view",
      "type": "function"
    },
    {
      "inputs": [
        {
          "internalType": "enum Dex.Side",
          "name": "side",
          "type": "uint8"
        },
        {
          "internalType": "bytes32",
          "name": "ticker",
          "type": "bytes32"
        },
        {
          "internalType": "uint256",
          "name": "amount",
          "type": "uint256"
        },
        {
          "internalType": "uint256",
          "name": "price",
          "type": "uint256"
        }
      ],
      "name": "createLimitOrder",
      "outputs": [
        {
          "internalType": "uint256",
          "name": "",
          "type": "uint256"
        }
      ],
      "stateMutability": "nonpayable",
      "type": "function"
    },
    {
      "inputs": [
        {
          "internalType": "enum Dex.Side",
          "name": "side",
          "type": "uint8"
        },
        {
          "internalType": "bytes32",
          "name": "ticker",
          "type": "bytes32"
        },
        {
          "internalType": "uint256",
          "name": "amount",
          "type": "uint256"
        }
      ],
      "name": "createMarketOrder",
      "outputs": [
        {
          "internalType": "uint256",
          "name": "",
          "type": "uint256"
        },
        {
          "internalType": "uint256",
          "name": "",
          "type": "uint256"
        }
      ],
      "stateMutability": "nonpayable",
      "type": "function"
    },
    {
      "inputs": [
        {
          "internalType": "uint256",
          "name": "amount",
          "type": "uint256"
        },
        {
          "internalType": "bytes32",
          "name": "ticker",
          "type": "bytes32"
        }
      ],
      "name": "deposit",
      "outputs": [],
      "stateMutability": "nonpayable",
      "type": "function"
    },
    {
      "inputs": [],
      "name": "depositETH",
      "outputs": [],
      "stateMutability": "payable",
      "type": "function"
    },
    {
      "inputs": [
        {
          "internalType": "bytes32",
          "name": "ticker",
          "type": "bytes32"
        },
        {
          "internalType": "enum Dex.Side",
          "name": "side",
          "type": "uint8"
        }
      ],
      "name": "getOrderBook",
      "outputs": [
        {
          "components": [
            {
              "internalType": "uint256",
              "name": "id",
              "type": "uint256"
            },
            {
              "internalType": "address",
              "name": "trader",
              "type": "address"
            },
            {
              "internalType": "enum Dex.Side",
              "name": "side",
              "type": "uint8"
            },
            {
              "internalType": "bytes32",
              "name": "ticker",
              "type": "bytes32"
            },
            {
              "internalType": "uint256",
              "name": "amount",
              "type": "uint256"
            },
            {
              "internalType": "uint256",
              "name": "price",
              "type": "uint256"
            }
          ],
          "internalType": "struct Dex.Order[]",
          "name": "",
          "type": "tuple[]"
        }
      ],
      "stateMutability": "view",
      "type": "function"
    },
    {
      "inputs": [],
      "name": "nextOrderID",
      "outputs": [
        {
          "internalType": "uint256",
          "name": "",
          "type": "uint256"
        }
      ],
      "stateMutability": "view",
      "type": "function"
    },
    {
      "inputs": [],
      "name": "owner",
      "outputs": [
        {
          "internalType": "address",
          "name": "",
          "type": "address"
        }
      ],
      "stateMutability": "view",
      "type": "function"
    },
    {
      "inputs": [],
      "name": "renounceOwnership",
      "outputs": [],
      "stateMutability": "nonpayable",
      "type": "function"
    },
    {
      "inputs": [
        {
          "internalType": "uint256",
          "name": "",
          "type": "uint256"
        }
      ],
      "name": "tokenList",
      "outputs": [
        {
          "internalType": "bytes32",
          "name": "",
          "type": "bytes32"
        }
      ],
      "stateMutability": "view",
      "type": "function"
    },
    {
      "inputs": [
        {
          "internalType": "bytes32",
          "name": "",
          "type": "bytes32"
        }
      ],
      "name": "tokenMapping",
      "outputs": [
        {
          "internalType": "bytes32",
          "name": "ticker",
          "type": "bytes32"
        },
        {
          "internalType": "address",
          "name": "tokenAddress",
          "type": "address"
        }
      ],
      "stateMutability": "view",
      "type": "function"
    },
    {
      "inputs": [
        {
          "internalType": "address",
          "name": "newOwner",
          "type": "address"
        }
      ],
      "name": "transferOwnership",
      "outputs": [],
      "stateMutability": "nonpayable",
      "type": "function"
    },
    {
      "inputs": [
        {
          "internalType": "uint256",
          "name": "withdrawAmount",
          "type": "uint256"
        },
        {
          "internalType": "bytes32",
          "name": "ticker",
          "type": "bytes32"
        }
      ],
      "name": "withdraw",
      "outputs": [],
      "stateMutability": "nonpayable",
      "type": "function"
    },
    {
      "inputs": [
        {
          "internalType": "uint256",
          "name": "withdrawAmount",
          "type": "uint256"
        }
      ],
      "name": "withdrawETH",
      "outputs": [
        {
          "internalType": "bool",
          "name": "success",
          "type": "bool"
        }
      ],
      "stateMutability": "nonpayable",
      "type": "function"
    }
  ],
  "bytecode": "0x60806040523480156200001157600080fd5b5062000032620000266200003860201b60201c565b6200004060201b60201c565b62000104565b600033905090565b60008060009054906101000a900473ffffffffffffffffffffffffffffffffffffffff169050816000806101000a81548173ffffffffffffffffffffffffffffffffffffffff021916908373ffffffffffffffffffffffffffffffffffffffff1602179055508173ffffffffffffffffffffffffffffffffffffffff168173ffffffffffffffffffffffffffffffffffffffff167f8be0079c531659141344cd1fd0a4f28419497f9722a3daafe3b4186f6b6457e060405160405180910390a35050565b612ed680620001146000396000f3fe6080604052600436106100e85760003560e01c80639ead72221161008a578063f14210a611610059578063f14210a61461031a578063f2fde38b14610357578063f47a0acc14610380578063f6326fb3146103ab576100e8565b80639ead72221461024e578063a8d2021a1461028b578063ba58ea68146102b4578063c9630cb0146102f1576100e8565b8063715018a6116100c6578063715018a6146101a55780638da5cb5b146101bc5780639776aacf146101e757806399ec2f1c14610210576100e8565b80631f14df69146100ed578063667cb4ba1461012a5780636f3b62f914610168575b600080fd5b3480156100f957600080fd5b50610114600480360381019061010f919061233c565b6103b5565b6040516101219190612395565b60405180910390f35b34801561013657600080fd5b50610151600480360381019061014c91906123b0565b6103da565b60405161015f9291906123fb565b60405180910390f35b34801561017457600080fd5b5061018f600480360381019061018a9190612475565b61041e565b60405161019c9190612395565b60405180910390f35b3480156101b157600080fd5b506101ba6105cd565b005b3480156101c857600080fd5b506101d16105e1565b6040516101de91906124dc565b60405180910390f35b3480156101f357600080fd5b5061020e600480360381019061020991906124f7565b61060a565b005b34801561021c57600080fd5b5061023760048036038101906102329190612537565b6106d1565b60405161024592919061258a565b60405180910390f35b34801561025a57600080fd5b50610275600480360381019061027091906125b3565b6107d1565b60405161028291906125e0565b60405180910390f35b34801561029757600080fd5b506102b260048036038101906102ad91906125fb565b6107f5565b005b3480156102c057600080fd5b506102db60048036038101906102d6919061263b565b610a88565b6040516102e89190612849565b60405180910390f35b3480156102fd57600080fd5b50610318600480360381019061031391906125fb565b610bd7565b005b34801561032657600080fd5b50610341600480360381019061033c91906125b3565b610dd9565b60405161034e9190612886565b60405180910390f35b34801561036357600080fd5b5061037e600480360381019061037991906128a1565b610fbf565b005b34801561038c57600080fd5b50610395611042565b6040516103a29190612395565b60405180910390f35b6103b3611048565b005b6003602052816000526040600020602052806000526040600020600091509150505481565b60016020528060005260406000206000915090508060000154908060010160009054906101000a900473ffffffffffffffffffffffffffffffffffffffff16905082565b600083600073ffffffffffffffffffffffffffffffffffffffff166001600083815260200190815260200160002060010160009054906101000a900473ffffffffffffffffffffffffffffffffffffffff1673ffffffffffffffffffffffffffffffffffffffff16036104c6576040517f08c379a00000000000000000000000000000000000000000000000000000000081526004016104bd9061292b565b60405180910390fd5b600060018111156104da576104d96126c5565b5b8660018111156104ed576104ec6126c5565b5b036105c35782846104fe919061297a565b600360003373ffffffffffffffffffffffffffffffffffffffff1673ffffffffffffffffffffffffffffffffffffffff16815260200190815260200160002060007f455448000000000000000000000000000000000000000000000000000000000081526020019081526020016000205410156105b0576040517f08c379a00000000000000000000000000000000000000000000000000000000081526004016105a790612a08565b60405180910390fd5b6105bc8686868661110a565b91506105c4565b5b50949350505050565b6105d5611633565b6105df60006116b1565b565b60008060009054906101000a900473ffffffffffffffffffffffffffffffffffffffff16905090565b610612611633565b60405180604001604052808381526020018273ffffffffffffffffffffffffffffffffffffffff16815250600160008481526020019081526020016000206000820151816000015560208201518160010160006101000a81548173ffffffffffffffffffffffffffffffffffffffff021916908373ffffffffffffffffffffffffffffffffffffffff16021790555090505060028290806001815401808255809150506001900390600052602060002001600090919091909150555050565b60008083600073ffffffffffffffffffffffffffffffffffffffff166001600083815260200190815260200160002060010160009054906101000a900473ffffffffffffffffffffffffffffffffffffffff1673ffffffffffffffffffffffffffffffffffffffff160361077a576040517f08c379a00000000000000000000000000000000000000000000000000000000081526004016107719061292b565b60405180910390fd5b6000600181111561078e5761078d6126c5565b5b8660018111156107a1576107a06126c5565b5b036107b9576107b08585611775565b925092506107c8565b6107c38585611d0a565b925092505b50935093915050565b600281815481106107e157600080fd5b906000526020600020016000915090505481565b80600073ffffffffffffffffffffffffffffffffffffffff166001600083815260200190815260200160002060010160009054906101000a900473ffffffffffffffffffffffffffffffffffffffff1673ffffffffffffffffffffffffffffffffffffffff160361089b576040517f08c379a00000000000000000000000000000000000000000000000000000000081526004016108929061292b565b60405180910390fd5b82600360003373ffffffffffffffffffffffffffffffffffffffff1673ffffffffffffffffffffffffffffffffffffffff168152602001908152602001600020600084815260200190815260200160002054101561092e576040517f08c379a000000000000000000000000000000000000000000000000000000000815260040161092590612a74565b60405180910390fd5b82600360003373ffffffffffffffffffffffffffffffffffffffff1673ffffffffffffffffffffffffffffffffffffffff1681526020019081526020016000206000848152602001908152602001600020600082825461098e9190612a94565b925050819055506001600083815260200190815260200160002060010160009054906101000a900473ffffffffffffffffffffffffffffffffffffffff1673ffffffffffffffffffffffffffffffffffffffff1663a9059cbb33856040518363ffffffff1660e01b8152600401610a06929190612ac8565b6020604051808303816000875af1158015610a25573d6000803e3d6000fd5b505050506040513d601f19601f82011682018060405250810190610a499190612b1d565b507fb4214c8c54fc7442f36d3682f59aebaf09358a4431835b30efb29d52cf9e1e913384604051610a7b929190612ac8565b60405180910390a1505050565b6060600560008481526020019081526020016000206000836001811115610ab257610ab16126c5565b5b8152602001908152602001600020805480602002602001604051908101604052809291908181526020016000905b82821015610bcb57838290600052602060002090600502016040518060c0016040529081600082015481526020016001820160009054906101000a900473ffffffffffffffffffffffffffffffffffffffff1673ffffffffffffffffffffffffffffffffffffffff1673ffffffffffffffffffffffffffffffffffffffff1681526020016001820160149054906101000a900460ff166001811115610b8857610b876126c5565b5b6001811115610b9a57610b996126c5565b5b8152602001600282015481526020016003820154815260200160048201548152505081526020019060010190610ae0565b50505050905092915050565b80600073ffffffffffffffffffffffffffffffffffffffff166001600083815260200190815260200160002060010160009054906101000a900473ffffffffffffffffffffffffffffffffffffffff1673ffffffffffffffffffffffffffffffffffffffff1603610c7d576040517f08c379a0000000000000000000000000000000000000000000000000000000008152600401610c749061292b565b60405180910390fd5b82600360003373ffffffffffffffffffffffffffffffffffffffff1673ffffffffffffffffffffffffffffffffffffffff16815260200190815260200160002060008481526020019081526020016000206000828254610cdd9190612a94565b925050819055506001600083815260200190815260200160002060010160009054906101000a900473ffffffffffffffffffffffffffffffffffffffff1673ffffffffffffffffffffffffffffffffffffffff166323b872dd3330866040518463ffffffff1660e01b8152600401610d5793929190612b4a565b6020604051808303816000875af1158015610d76573d6000803e3d6000fd5b505050506040513d601f19601f82011682018060405250810190610d9a9190612b1d565b507f1b851e1031ef35a238e6c67d0c7991162390df915f70eaf9098dbf0b175a61983384604051610dcc929190612ac8565b60405180910390a1505050565b600081600360003373ffffffffffffffffffffffffffffffffffffffff1673ffffffffffffffffffffffffffffffffffffffff16815260200190815260200160002060007f45544800000000000000000000000000000000000000000000000000000000008152602001908152602001600020541015610e8e576040517f08c379a0000000000000000000000000000000000000000000000000000000008152600401610e8590612a74565b60405180910390fd5b81600360003373ffffffffffffffffffffffffffffffffffffffff1673ffffffffffffffffffffffffffffffffffffffff16815260200190815260200160002060007f455448000000000000000000000000000000000000000000000000000000000081526020019081526020016000206000828254610f0e9190612a94565b925050819055503373ffffffffffffffffffffffffffffffffffffffff1682604051610f3990612bb2565b60006040518083038185875af1925050503d8060008114610f76576040519150601f19603f3d011682016040523d82523d6000602084013e610f7b565b606091505b5050809150507fb4214c8c54fc7442f36d3682f59aebaf09358a4431835b30efb29d52cf9e1e913383604051610fb2929190612ac8565b60405180910390a1919050565b610fc7611633565b600073ffffffffffffffffffffffffffffffffffffffff168173ffffffffffffffffffffffffffffffffffffffff1603611036576040517f08c379a000000000000000000000000000000000000000000000000000000000815260040161102d90612c39565b60405180910390fd5b61103f816116b1565b50565b60045481565b34600360003373ffffffffffffffffffffffffffffffffffffffff1673ffffffffffffffffffffffffffffffffffffffff16815260200190815260200160002060007f4554480000000000000000000000000000000000000000000000000000000000815260200190815260200160002060008282546110c89190612a94565b925050819055507f1b851e1031ef35a238e6c67d0c7991162390df915f70eaf9098dbf0b175a61983334604051611100929190612ac8565b60405180910390a1565b600080600560008681526020019081526020016000206000876001811115611135576111346126c5565b5b815260200190815260200160002090506000600454905060006040518060c001604052808381526020013373ffffffffffffffffffffffffffffffffffffffff16815260200189600181111561118e5761118d6126c5565b5b8152602001888152602001878152602001868152509050600460008154809291906111b890612c59565b91905055506000805b8480549050811015611551578481815481106111e0576111df612ca1565b5b90600052602060002090600502016004015487111561153e5784856001878054905061120c9190612cd0565b8154811061121d5761121c612ca1565b5b90600052602060002090600502019080600181540180825580915050600190039060005260206000209060050201600090919091909150600082015481600001556001820160009054906101000a900473ffffffffffffffffffffffffffffffffffffffff168160010160006101000a81548173ffffffffffffffffffffffffffffffffffffffff021916908373ffffffffffffffffffffffffffffffffffffffff1602179055506001820160149054906101000a900460ff168160010160146101000a81548160ff021916908360018111156112fd576112fc6126c5565b5b021790555060028201548160020155600382015481600301556004820154816004015550506000600286805490506113359190612cd0565b90505b81811115611470578560018261134e9190612cd0565b8154811061135f5761135e612ca1565b5b90600052602060002090600502018682815481106113805761137f612ca1565b5b9060005260206000209060050201600082015481600001556001820160009054906101000a900473ffffffffffffffffffffffffffffffffffffffff168160010160006101000a81548173ffffffffffffffffffffffffffffffffffffffff021916908373ffffffffffffffffffffffffffffffffffffffff1602179055506001820160149054906101000a900460ff168160010160146101000a81548160ff02191690836001811115611437576114366126c5565b5b0217905550600282015481600201556003820154816003015560048201548160040155905050808061146890612d04565b915050611338565b508285828154811061148557611484612ca1565b5b90600052602060002090600502016000820151816000015560208201518160010160006101000a81548173ffffffffffffffffffffffffffffffffffffffff021916908373ffffffffffffffffffffffffffffffffffffffff16021790555060408201518160010160146101000a81548160ff0219169083600181111561150f5761150e6126c5565b5b0217905550606082015181600201556080820151816003015560a0820151816004015590505060019150611551565b808061154990612c59565b9150506111c1565b508061162457838290806001815401808255809150506001900390600052602060002090600502016000909190919091506000820151816000015560208201518160010160006101000a81548173ffffffffffffffffffffffffffffffffffffffff021916908373ffffffffffffffffffffffffffffffffffffffff16021790555060408201518160010160146101000a81548160ff021916908360018111156115fe576115fd6126c5565b5b0217905550606082015181600201556080820151816003015560a0820151816004015550505b82945050505050949350505050565b61163b61229b565b73ffffffffffffffffffffffffffffffffffffffff166116596105e1565b73ffffffffffffffffffffffffffffffffffffffff16146116af576040517f08c379a00000000000000000000000000000000000000000000000000000000081526004016116a690612d79565b60405180910390fd5b565b60008060009054906101000a900473ffffffffffffffffffffffffffffffffffffffff169050816000806101000a81548173ffffffffffffffffffffffffffffffffffffffff021916908373ffffffffffffffffffffffffffffffffffffffff1602179055508173ffffffffffffffffffffffffffffffffffffffff168173ffffffffffffffffffffffffffffffffffffffff167f8be0079c531659141344cd1fd0a4f28419497f9722a3daafe3b4186f6b6457e060405160405180910390a35050565b60008060006005600086815260200190815260200160002060006001808111156117a2576117a16126c5565b5b815260200190815260200160002090506000808590506000838054905090505b6000811115611caa576000846001836117db9190612cd0565b815481106117ec576117eb612ca1565b5b90600052602060002090600502019050600083826003015411156118125783905061181a565b816003015490505b600082600401548261182c919061297a565b9050808661183a9190612a94565b955080600360003373ffffffffffffffffffffffffffffffffffffffff1673ffffffffffffffffffffffffffffffffffffffff16815260200190815260200160002060007f455448000000000000000000000000000000000000000000000000000000000081526020019081526020016000205410156118ef576040517f08c379a00000000000000000000000000000000000000000000000000000000081526004016118e690612de5565b60405180910390fd5b81600360008560010160009054906101000a900473ffffffffffffffffffffffffffffffffffffffff1673ffffffffffffffffffffffffffffffffffffffff1673ffffffffffffffffffffffffffffffffffffffff16815260200190815260200160002060008d81526020019081526020016000205410156119a6576040517f08c379a000000000000000000000000000000000000000000000000000000000815260040161199d90612e51565b60405180910390fd5b80600360003373ffffffffffffffffffffffffffffffffffffffff1673ffffffffffffffffffffffffffffffffffffffff16815260200190815260200160002060007f455448000000000000000000000000000000000000000000000000000000000081526020019081526020016000206000828254611a269190612cd0565b9250508190555080600360008560010160009054906101000a900473ffffffffffffffffffffffffffffffffffffffff1673ffffffffffffffffffffffffffffffffffffffff1673ffffffffffffffffffffffffffffffffffffffff16815260200190815260200160002060007f455448000000000000000000000000000000000000000000000000000000000081526020019081526020016000206000828254611ad19190612a94565b9250508190555081600360003373ffffffffffffffffffffffffffffffffffffffff1673ffffffffffffffffffffffffffffffffffffffff16815260200190815260200160002060008d81526020019081526020016000206000828254611b389190612a94565b9250508190555081600360008560010160009054906101000a900473ffffffffffffffffffffffffffffffffffffffff1673ffffffffffffffffffffffffffffffffffffffff1673ffffffffffffffffffffffffffffffffffffffff16815260200190815260200160002060008d81526020019081526020016000206000828254611bc39190612cd0565b925050819055508483600301541115611bfd5784836003016000828254611bea9190612cd0565b9250508190555060009450505050611caa565b826003015485611c0d9190612cd0565b945086805480611c2057611c1f612e71565b5b60019003818190600052602060002090600502016000808201600090556001820160006101000a81549073ffffffffffffffffffffffffffffffffffffffff02191690556001820160146101000a81549060ff0219169055600282016000905560038201600090556004820160009055505090555050508080611ca290612d04565b9150506117c2565b507ff5daccd6d0627e52ed76e2a229c88b20534395c6f7702dae1cec76ba612564e78187611cd89190612cd0565b83604051611ce792919061258a565b60405180910390a1818187611cfc9190612cd0565b945094505050509250929050565b6000806000600560008681526020019081526020016000206000806001811115611d3757611d366126c5565b5b815260200190815260200160002090506000808590506000838054905090505b600081111561223b57600084600183611d709190612cd0565b81548110611d8157611d80612ca1565b5b9060005260206000209060050201905060008382600301541115611da757839050611dab565b8390505b6000826004015482611dbd919061297a565b90508086611dcb9190612a94565b955080600360008560010160009054906101000a900473ffffffffffffffffffffffffffffffffffffffff1673ffffffffffffffffffffffffffffffffffffffff1673ffffffffffffffffffffffffffffffffffffffff16815260200190815260200160002060007f45544800000000000000000000000000000000000000000000000000000000008152602001908152602001600020541015611ea4576040517f08c379a0000000000000000000000000000000000000000000000000000000008152600401611e9b90612de5565b60405180910390fd5b81600360003373ffffffffffffffffffffffffffffffffffffffff1673ffffffffffffffffffffffffffffffffffffffff16815260200190815260200160002060008d8152602001908152602001600020541015611f37576040517f08c379a0000000000000000000000000000000000000000000000000000000008152600401611f2e90612e51565b60405180910390fd5b80600360008560010160009054906101000a900473ffffffffffffffffffffffffffffffffffffffff1673ffffffffffffffffffffffffffffffffffffffff1673ffffffffffffffffffffffffffffffffffffffff16815260200190815260200160002060007f455448000000000000000000000000000000000000000000000000000000000081526020019081526020016000206000828254611fdb9190612cd0565b9250508190555080600360003373ffffffffffffffffffffffffffffffffffffffff1673ffffffffffffffffffffffffffffffffffffffff16815260200190815260200160002060007f4554480000000000000000000000000000000000000000000000000000000000815260200190815260200160002060008282546120629190612a94565b9250508190555081600360008560010160009054906101000a900473ffffffffffffffffffffffffffffffffffffffff1673ffffffffffffffffffffffffffffffffffffffff1673ffffffffffffffffffffffffffffffffffffffff16815260200190815260200160002060008d815260200190815260200160002060008282546120ed9190612a94565b9250508190555081600360003373ffffffffffffffffffffffffffffffffffffffff1673ffffffffffffffffffffffffffffffffffffffff16815260200190815260200160002060008d815260200190815260200160002060008282546121549190612cd0565b92505081905550848360030154111561218e578483600301600082825461217b9190612cd0565b925050819055506000945050505061223b565b82600301548561219e9190612cd0565b9450868054806121b1576121b0612e71565b5b60019003818190600052602060002090600502016000808201600090556001820160006101000a81549073ffffffffffffffffffffffffffffffffffffffff02191690556001820160146101000a81549060ff021916905560028201600090556003820160009055600482016000905550509055505050808061223390612d04565b915050611d57565b507ff5daccd6d0627e52ed76e2a229c88b20534395c6f7702dae1cec76ba612564e781876122699190612cd0565b8360405161227892919061258a565b60405180910390a181818761228d9190612cd0565b945094505050509250929050565b600033905090565b600080fd5b600073ffffffffffffffffffffffffffffffffffffffff82169050919050565b60006122d3826122a8565b9050919050565b6122e3816122c8565b81146122ee57600080fd5b50565b600081359050612300816122da565b92915050565b6000819050919050565b61231981612306565b811461232457600080fd5b50565b60008135905061233681612310565b92915050565b60008060408385031215612353576123526122a3565b5b6000612361858286016122f1565b925050602061237285828601612327565b9150509250929050565b6000819050919050565b61238f8161237c565b82525050565b60006020820190506123aa6000830184612386565b92915050565b6000602082840312156123c6576123c56122a3565b5b60006123d484828501612327565b91505092915050565b6123e681612306565b82525050565b6123f5816122c8565b82525050565b600060408201905061241060008301856123dd565b61241d60208301846123ec565b9392505050565b6002811061243157600080fd5b50565b60008135905061244381612424565b92915050565b6124528161237c565b811461245d57600080fd5b50565b60008135905061246f81612449565b92915050565b6000806000806080858703121561248f5761248e6122a3565b5b600061249d87828801612434565b94505060206124ae87828801612327565b93505060406124bf87828801612460565b92505060606124d087828801612460565b91505092959194509250565b60006020820190506124f160008301846123ec565b92915050565b6000806040838503121561250e5761250d6122a3565b5b600061251c85828601612327565b925050602061252d858286016122f1565b9150509250929050565b6000806000606084860312156125505761254f6122a3565b5b600061255e86828701612434565b935050602061256f86828701612327565b925050604061258086828701612460565b9150509250925092565b600060408201905061259f6000830185612386565b6125ac6020830184612386565b9392505050565b6000602082840312156125c9576125c86122a3565b5b60006125d784828501612460565b91505092915050565b60006020820190506125f560008301846123dd565b92915050565b60008060408385031215612612576126116122a3565b5b600061262085828601612460565b925050602061263185828601612327565b9150509250929050565b60008060408385031215612652576126516122a3565b5b600061266085828601612327565b925050602061267185828601612434565b9150509250929050565b600081519050919050565b600082825260208201905092915050565b6000819050602082019050919050565b6126b08161237c565b82525050565b6126bf816122c8565b82525050565b7f4e487b7100000000000000000000000000000000000000000000000000000000600052602160045260246000fd5b60028110612705576127046126c5565b5b50565b6000819050612716826126f4565b919050565b600061272682612708565b9050919050565b6127368161271b565b82525050565b61274581612306565b82525050565b60c08201600082015161276160008501826126a7565b50602082015161277460208501826126b6565b506040820151612787604085018261272d565b50606082015161279a606085018261273c565b5060808201516127ad60808501826126a7565b5060a08201516127c060a08501826126a7565b50505050565b60006127d2838361274b565b60c08301905092915050565b6000602082019050919050565b60006127f68261267b565b6128008185612686565b935061280b83612697565b8060005b8381101561283c57815161282388826127c6565b975061282e836127de565b92505060018101905061280f565b5085935050505092915050565b6000602082019050818103600083015261286381846127eb565b905092915050565b60008115159050919050565b6128808161286b565b82525050565b600060208201905061289b6000830184612877565b92915050565b6000602082840312156128b7576128b66122a3565b5b60006128c5848285016122f1565b91505092915050565b600082825260208201905092915050565b7f5469636b657220646f6573206e6f742079657420657869737400000000000000600082015250565b60006129156019836128ce565b9150612920826128df565b602082019050919050565b6000602082019050818103600083015261294481612908565b9050919050565b7f4e487b7100000000000000000000000000000000000000000000000000000000600052601160045260246000fd5b60006129858261237c565b91506129908361237c565b925082820261299e8161237c565b915082820484148315176129b5576129b461294b565b5b5092915050565b7f4554482042616c616e6365206e6f742073756666696369656e74000000000000600082015250565b60006129f2601a836128ce565b91506129fd826129bc565b602082019050919050565b60006020820190508181036000830152612a21816129e5565b9050919050565b7f42616c616e6365206e6f742073756666696369656e7400000000000000000000600082015250565b6000612a5e6016836128ce565b9150612a6982612a28565b602082019050919050565b60006020820190508181036000830152612a8d81612a51565b9050919050565b6000612a9f8261237c565b9150612aaa8361237c565b9250828201905080821115612ac257612ac161294b565b5b92915050565b6000604082019050612add60008301856123ec565b612aea6020830184612386565b9392505050565b612afa8161286b565b8114612b0557600080fd5b50565b600081519050612b1781612af1565b92915050565b600060208284031215612b3357612b326122a3565b5b6000612b4184828501612b08565b91505092915050565b6000606082019050612b5f60008301866123ec565b612b6c60208301856123ec565b612b796040830184612386565b949350505050565b600081905092915050565b50565b6000612b9c600083612b81565b9150612ba782612b8c565b600082019050919050565b6000612bbd82612b8f565b9150819050919050565b7f4f776e61626c653a206e6577206f776e657220697320746865207a65726f206160008201527f6464726573730000000000000000000000000000000000000000000000000000602082015250565b6000612c236026836128ce565b9150612c2e82612bc7565b604082019050919050565b60006020820190508181036000830152612c5281612c16565b9050919050565b6000612c648261237c565b91507fffffffffffffffffffffffffffffffffffffffffffffffffffffffffffffffff8203612c9657612c9561294b565b5b600182019050919050565b7f4e487b7100000000000000000000000000000000000000000000000000000000600052603260045260246000fd5b6000612cdb8261237c565b9150612ce68361237c565b9250828203905081811115612cfe57612cfd61294b565b5b92915050565b6000612d0f8261237c565b915060008203612d2257612d2161294b565b5b600182039050919050565b7f4f776e61626c653a2063616c6c6572206973206e6f7420746865206f776e6572600082015250565b6000612d636020836128ce565b9150612d6e82612d2d565b602082019050919050565b60006020820190508181036000830152612d9281612d56565b9050919050565b7f4554482062616c616e6365206e6f742073756666696369656e74000000000000600082015250565b6000612dcf601a836128ce565b9150612dda82612d99565b602082019050919050565b60006020820190508181036000830152612dfe81612dc2565b9050919050565b7f546f6b656e2062616c616e6365206e6f742073756666696369656e7400000000600082015250565b6000612e3b601c836128ce565b9150612e4682612e05565b602082019050919050565b60006020820190508181036000830152612e6a81612e2e565b9050919050565b7f4e487b7100000000000000000000000000000000000000000000000000000000600052603160045260246000fdfea264697066735822122013ba4c09b62824e2668d2f3be54c6b439fd44f79164869fc0f1c9bf7edc50de464736f6c63430008110033",
  "linkReferences": {},
  "deployedLinkReferences": {}
}