{
  "_format": "hh-sol-artifact-1",
  "contractName": "Wallet",
  "sourceName": "contracts/wallet.sol",
  "abi": [
    {
      "anonymous": false,
      "inputs": [
        {
          "indexed": false,
          "internalType": "address",
          "name": "tokenAddress",
          "type": "address"
        },
        {
          "indexed": false,
          "internalType": "uint256",
          "name": "amount",
          "type": "uint256"
        }
      ],
      "name": "LogDeposit",
      "type": "event"
    },
    {
      "anonymous": false,
      "inputs": [
        {
          "indexed": false,
          "internalType": "address",
          "name": "tokenAddress",
          "type": "address"
        },
        {
          "indexed": false,
          "internalType": "uint256",
          "name": "amount",
          "type": "uint256"
        }
      ],
      "name": "LogWithdrawal",
      "type": "event"
    },
    {
      "anonymous": false,
      "inputs": [
        {
          "indexed": true,
          "internalType": "address",
          "name": "previousOwner",
          "type": "address"
        },
        {
          "indexed": true,
          "internalType": "address",
          "name": "newOwner",
          "type": "address"
        }
      ],
      "name": "OwnershipTransferred",
      "type": "event"
    },
    {
      "inputs": [
        {
          "internalType": "bytes32",
          "name": "ticker",
          "type": "bytes32"
        },
        {
          "internalType": "address",
          "name": "tokenAddress",
          "type": "address"
        }
      ],
      "name": "addToken",
      "outputs": [],
      "stateMutability": "nonpayable",
      "type": "function"
    },
    {
      "inputs": [
        {
          "internalType": "address",
          "name": "",
          "type": "address"
        },
        {
          "internalType": "bytes32",
          "name": "",
          "type": "bytes32"
        }
      ],
      "name": "balances",
      "outputs": [
        {
          "internalType": "uint256",
          "name": "",
          "type": "uint256"
        }
      ],
      "stateMutability": "view",
      "type": "function"
    },
    {
      "inputs": [
        {
          "internalType": "uint256",
          "name": "amount",
          "type": "uint256"
        },
        {
          "internalType": "bytes32",
          "name": "ticker",
          "type": "bytes32"
        }
      ],
      "name": "deposit",
      "outputs": [],
      "stateMutability": "nonpayable",
      "type": "function"
    },
    {
      "inputs": [],
      "name": "depositETH",
      "outputs": [],
      "stateMutability": "payable",
      "type": "function"
    },
    {
      "inputs": [],
      "name": "owner",
      "outputs": [
        {
          "internalType": "address",
          "name": "",
          "type": "address"
        }
      ],
      "stateMutability": "view",
      "type": "function"
    },
    {
      "inputs": [],
      "name": "renounceOwnership",
      "outputs": [],
      "stateMutability": "nonpayable",
      "type": "function"
    },
    {
      "inputs": [
        {
          "internalType": "uint256",
          "name": "",
          "type": "uint256"
        }
      ],
      "name": "tokenList",
      "outputs": [
        {
          "internalType": "bytes32",
          "name": "",
          "type": "bytes32"
        }
      ],
      "stateMutability": "view",
      "type": "function"
    },
    {
      "inputs": [
        {
          "internalType": "bytes32",
          "name": "",
          "type": "bytes32"
        }
      ],
      "name": "tokenMapping",
      "outputs": [
        {
          "internalType": "bytes32",
          "name": "ticker",
          "type": "bytes32"
        },
        {
          "internalType": "address",
          "name": "tokenAddress",
          "type": "address"
        }
      ],
      "stateMutability": "view",
      "type": "function"
    },
    {
      "inputs": [
        {
          "internalType": "address",
          "name": "newOwner",
          "type": "address"
        }
      ],
      "name": "transferOwnership",
      "outputs": [],
      "stateMutability": "nonpayable",
      "type": "function"
    },
    {
      "inputs": [
        {
          "internalType": "uint256",
          "name": "withdrawAmount",
          "type": "uint256"
        },
        {
          "internalType": "bytes32",
          "name": "ticker",
          "type": "bytes32"
        }
      ],
      "name": "withdraw",
      "outputs": [],
      "stateMutability": "nonpayable",
      "type": "function"
    },
    {
      "inputs": [
        {
          "internalType": "uint256",
          "name": "withdrawAmount",
          "type": "uint256"
        }
      ],
      "name": "withdrawETH",
      "outputs": [
        {
          "internalType": "bool",
          "name": "success",
          "type": "bool"
        }
      ],
      "stateMutability": "nonpayable",
      "type": "function"
    }
  ],
  "bytecode": "0x608060405234801561001057600080fd5b5061002d61002261003260201b60201c565b61003a60201b60201c565b6100fe565b600033905090565b60008060009054906101000a900473ffffffffffffffffffffffffffffffffffffffff169050816000806101000a81548173ffffffffffffffffffffffffffffffffffffffff021916908373ffffffffffffffffffffffffffffffffffffffff1602179055508173ffffffffffffffffffffffffffffffffffffffff168173ffffffffffffffffffffffffffffffffffffffff167f8be0079c531659141344cd1fd0a4f28419497f9722a3daafe3b4186f6b6457e060405160405180910390a35050565b6113938061010d6000396000f3fe60806040526004361061009c5760003560e01c80639ead7222116100645780639ead722214610187578063a8d2021a146101c4578063c9630cb0146101ed578063f14210a614610216578063f2fde38b14610253578063f6326fb31461027c5761009c565b80631f14df69146100a1578063667cb4ba146100de578063715018a61461011c5780638da5cb5b146101335780639776aacf1461015e575b600080fd5b3480156100ad57600080fd5b506100c860048036038101906100c39190610dba565b610286565b6040516100d59190610e13565b60405180910390f35b3480156100ea57600080fd5b5061010560048036038101906101009190610e2e565b6102ab565b604051610113929190610e79565b60405180910390f35b34801561012857600080fd5b506101316102ef565b005b34801561013f57600080fd5b50610148610303565b6040516101559190610ea2565b60405180910390f35b34801561016a57600080fd5b5061018560048036038101906101809190610ebd565b61032c565b005b34801561019357600080fd5b506101ae60048036038101906101a99190610f29565b6103f3565b6040516101bb9190610f56565b60405180910390f35b3480156101d057600080fd5b506101eb60048036038101906101e69190610f71565b610417565b005b3480156101f957600080fd5b50610214600480360381019061020f9190610f71565b6106aa565b005b34801561022257600080fd5b5061023d60048036038101906102389190610f29565b6108ac565b60405161024a9190610fcc565b60405180910390f35b34801561025f57600080fd5b5061027a60048036038101906102759190610fe7565b610a92565b005b610284610b15565b005b6003602052816000526040600020602052806000526040600020600091509150505481565b60016020528060005260406000206000915090508060000154908060010160009054906101000a900473ffffffffffffffffffffffffffffffffffffffff16905082565b6102f7610bd7565b6103016000610c55565b565b60008060009054906101000a900473ffffffffffffffffffffffffffffffffffffffff16905090565b610334610bd7565b60405180604001604052808381526020018273ffffffffffffffffffffffffffffffffffffffff16815250600160008481526020019081526020016000206000820151816000015560208201518160010160006101000a81548173ffffffffffffffffffffffffffffffffffffffff021916908373ffffffffffffffffffffffffffffffffffffffff16021790555090505060028290806001815401808255809150506001900390600052602060002001600090919091909150555050565b6002818154811061040357600080fd5b906000526020600020016000915090505481565b80600073ffffffffffffffffffffffffffffffffffffffff166001600083815260200190815260200160002060010160009054906101000a900473ffffffffffffffffffffffffffffffffffffffff1673ffffffffffffffffffffffffffffffffffffffff16036104bd576040517f08c379a00000000000000000000000000000000000000000000000000000000081526004016104b490611071565b60405180910390fd5b82600360003373ffffffffffffffffffffffffffffffffffffffff1673ffffffffffffffffffffffffffffffffffffffff1681526020019081526020016000206000848152602001908152602001600020541015610550576040517f08c379a0000000000000000000000000000000000000000000000000000000008152600401610547906110dd565b60405180910390fd5b82600360003373ffffffffffffffffffffffffffffffffffffffff1673ffffffffffffffffffffffffffffffffffffffff168152602001908152602001600020600084815260200190815260200160002060008282546105b0919061112c565b925050819055506001600083815260200190815260200160002060010160009054906101000a900473ffffffffffffffffffffffffffffffffffffffff1673ffffffffffffffffffffffffffffffffffffffff1663a9059cbb33856040518363ffffffff1660e01b8152600401610628929190611160565b6020604051808303816000875af1158015610647573d6000803e3d6000fd5b505050506040513d601f19601f8201168201806040525081019061066b91906111b5565b507fb4214c8c54fc7442f36d3682f59aebaf09358a4431835b30efb29d52cf9e1e91338460405161069d929190611160565b60405180910390a1505050565b80600073ffffffffffffffffffffffffffffffffffffffff166001600083815260200190815260200160002060010160009054906101000a900473ffffffffffffffffffffffffffffffffffffffff1673ffffffffffffffffffffffffffffffffffffffff1603610750576040517f08c379a000000000000000000000000000000000000000000000000000000000815260040161074790611071565b60405180910390fd5b82600360003373ffffffffffffffffffffffffffffffffffffffff1673ffffffffffffffffffffffffffffffffffffffff168152602001908152602001600020600084815260200190815260200160002060008282546107b0919061112c565b925050819055506001600083815260200190815260200160002060010160009054906101000a900473ffffffffffffffffffffffffffffffffffffffff1673ffffffffffffffffffffffffffffffffffffffff166323b872dd3330866040518463ffffffff1660e01b815260040161082a939291906111e2565b6020604051808303816000875af1158015610849573d6000803e3d6000fd5b505050506040513d601f19601f8201168201806040525081019061086d91906111b5565b507f1b851e1031ef35a238e6c67d0c7991162390df915f70eaf9098dbf0b175a6198338460405161089f929190611160565b60405180910390a1505050565b600081600360003373ffffffffffffffffffffffffffffffffffffffff1673ffffffffffffffffffffffffffffffffffffffff16815260200190815260200160002060007f45544800000000000000000000000000000000000000000000000000000000008152602001908152602001600020541015610961576040517f08c379a0000000000000000000000000000000000000000000000000000000008152600401610958906110dd565b60405180910390fd5b81600360003373ffffffffffffffffffffffffffffffffffffffff1673ffffffffffffffffffffffffffffffffffffffff16815260200190815260200160002060007f4554480000000000000000000000000000000000000000000000000000000000815260200190815260200160002060008282546109e1919061112c565b925050819055503373ffffffffffffffffffffffffffffffffffffffff1682604051610a0c9061124a565b60006040518083038185875af1925050503d8060008114610a49576040519150601f19603f3d011682016040523d82523d6000602084013e610a4e565b606091505b5050809150507fb4214c8c54fc7442f36d3682f59aebaf09358a4431835b30efb29d52cf9e1e913383604051610a85929190611160565b60405180910390a1919050565b610a9a610bd7565b600073ffffffffffffffffffffffffffffffffffffffff168173ffffffffffffffffffffffffffffffffffffffff1603610b09576040517f08c379a0000000000000000000000000000000000000000000000000000000008152600401610b00906112d1565b60405180910390fd5b610b1281610c55565b50565b34600360003373ffffffffffffffffffffffffffffffffffffffff1673ffffffffffffffffffffffffffffffffffffffff16815260200190815260200160002060007f455448000000000000000000000000000000000000000000000000000000000081526020019081526020016000206000828254610b95919061112c565b925050819055507f1b851e1031ef35a238e6c67d0c7991162390df915f70eaf9098dbf0b175a61983334604051610bcd929190611160565b60405180910390a1565b610bdf610d19565b73ffffffffffffffffffffffffffffffffffffffff16610bfd610303565b73ffffffffffffffffffffffffffffffffffffffff1614610c53576040517f08c379a0000000000000000000000000000000000000000000000000000000008152600401610c4a9061133d565b60405180910390fd5b565b60008060009054906101000a900473ffffffffffffffffffffffffffffffffffffffff169050816000806101000a81548173ffffffffffffffffffffffffffffffffffffffff021916908373ffffffffffffffffffffffffffffffffffffffff1602179055508173ffffffffffffffffffffffffffffffffffffffff168173ffffffffffffffffffffffffffffffffffffffff167f8be0079c531659141344cd1fd0a4f28419497f9722a3daafe3b4186f6b6457e060405160405180910390a35050565b600033905090565b600080fd5b600073ffffffffffffffffffffffffffffffffffffffff82169050919050565b6000610d5182610d26565b9050919050565b610d6181610d46565b8114610d6c57600080fd5b50565b600081359050610d7e81610d58565b92915050565b6000819050919050565b610d9781610d84565b8114610da257600080fd5b50565b600081359050610db481610d8e565b92915050565b60008060408385031215610dd157610dd0610d21565b5b6000610ddf85828601610d6f565b9250506020610df085828601610da5565b9150509250929050565b6000819050919050565b610e0d81610dfa565b82525050565b6000602082019050610e286000830184610e04565b92915050565b600060208284031215610e4457610e43610d21565b5b6000610e5284828501610da5565b91505092915050565b610e6481610d84565b82525050565b610e7381610d46565b82525050565b6000604082019050610e8e6000830185610e5b565b610e9b6020830184610e6a565b9392505050565b6000602082019050610eb76000830184610e6a565b92915050565b60008060408385031215610ed457610ed3610d21565b5b6000610ee285828601610da5565b9250506020610ef385828601610d6f565b9150509250929050565b610f0681610dfa565b8114610f1157600080fd5b50565b600081359050610f2381610efd565b92915050565b600060208284031215610f3f57610f3e610d21565b5b6000610f4d84828501610f14565b91505092915050565b6000602082019050610f6b6000830184610e5b565b92915050565b60008060408385031215610f8857610f87610d21565b5b6000610f9685828601610f14565b9250506020610fa785828601610da5565b9150509250929050565b60008115159050919050565b610fc681610fb1565b82525050565b6000602082019050610fe16000830184610fbd565b92915050565b600060208284031215610ffd57610ffc610d21565b5b600061100b84828501610d6f565b91505092915050565b600082825260208201905092915050565b7f5469636b657220646f6573206e6f742079657420657869737400000000000000600082015250565b600061105b601983611014565b915061106682611025565b602082019050919050565b6000602082019050818103600083015261108a8161104e565b9050919050565b7f42616c616e6365206e6f742073756666696369656e7400000000000000000000600082015250565b60006110c7601683611014565b91506110d282611091565b602082019050919050565b600060208201905081810360008301526110f6816110ba565b9050919050565b7f4e487b7100000000000000000000000000000000000000000000000000000000600052601160045260246000fd5b600061113782610dfa565b915061114283610dfa565b925082820190508082111561115a576111596110fd565b5b92915050565b60006040820190506111756000830185610e6a565b6111826020830184610e04565b9392505050565b61119281610fb1565b811461119d57600080fd5b50565b6000815190506111af81611189565b92915050565b6000602082840312156111cb576111ca610d21565b5b60006111d9848285016111a0565b91505092915050565b60006060820190506111f76000830186610e6a565b6112046020830185610e6a565b6112116040830184610e04565b949350505050565b600081905092915050565b50565b6000611234600083611219565b915061123f82611224565b600082019050919050565b600061125582611227565b9150819050919050565b7f4f776e61626c653a206e6577206f776e657220697320746865207a65726f206160008201527f6464726573730000000000000000000000000000000000000000000000000000602082015250565b60006112bb602683611014565b91506112c68261125f565b604082019050919050565b600060208201905081810360008301526112ea816112ae565b9050919050565b7f4f776e61626c653a2063616c6c6572206973206e6f7420746865206f776e6572600082015250565b6000611327602083611014565b9150611332826112f1565b602082019050919050565b600060208201905081810360008301526113568161131a565b905091905056fea26469706673582212200e244e7b522490ab7f721fb00ad3deedbf5e2c409210701d86196fa774f4a75764736f6c63430008110033",
  "linkReferences": {},
  "deployedLinkReferences": {}
}